{"abi":[{"type":"constructor","inputs":[],"stateMutability":"nonpayable"},{"type":"function","name":"__init__","inputs":[{"name":"_proposer","type":"address","internalType":"address"},{"name":"_beneficiary","type":"address","internalType":"address"},{"name":"_verifier","type":"address","internalType":"address"},{"name":"_metadata_uri","type":"string","internalType":"string"},{"name":"_deadline","type":"uint256","internalType":"uint256"}],"outputs":[],"stateMutability":"nonpayable"},{"type":"function","name":"beneficiary","inputs":[],"outputs":[{"name":"","type":"address","internalType":"address"}],"stateMutability":"view"},{"type":"function","name":"cancel","inputs":[{"name":"reason","type":"string","internalType":"string"}],"outputs":[],"stateMutability":"nonpayable"},{"type":"function","name":"claim_refund","inputs":[],"outputs":[],"stateMutability":"nonpayable"},{"type":"function","name":"contributors","inputs":[{"name":"","type":"address","internalType":"address"}],"outputs":[{"name":"amount","type":"uint256","internalType":"uint256"},{"name":"refunded","type":"bool","internalType":"bool"}],"stateMutability":"view"},{"type":"function","name":"deadline","inputs":[],"outputs":[{"name":"","type":"uint256","internalType":"uint256"}],"stateMutability":"view"},{"type":"function","name":"fund","inputs":[],"outputs":[],"stateMutability":"payable"},{"type":"function","name":"get_contribution","inputs":[{"name":"user","type":"address","internalType":"address"}],"outputs":[{"name":"amount","type":"uint256","internalType":"uint256"},{"name":"refunded","type":"bool","internalType":"bool"}],"stateMutability":"view"},{"type":"function","name":"get_contributors","inputs":[],"outputs":[{"name":"","type":"address[]","internalType":"address[]"}],"stateMutability":"view"},{"type":"function","name":"get_details","inputs":[],"outputs":[{"name":"","type":"tuple","internalType":"struct CarbonProject.ProjectDetails","components":[{"name":"proposer","type":"address","internalType":"address"},{"name":"beneficiary","type":"address","internalType":"address"},{"name":"verifier","type":"address","internalType":"address"},{"name":"metadata_uri","type":"string","internalType":"string"},{"name":"state","type":"uint8","internalType":"enum CarbonProject.State"},{"name":"total_contributed","type":"uint256","internalType":"uint256"},{"name":"deadline","type":"uint256","internalType":"uint256"}]}],"stateMutability":"view"},{"type":"function","name":"metadata_uri","inputs":[],"outputs":[{"name":"","type":"string","internalType":"string"}],"stateMutability":"view"},{"type":"function","name":"proposer","inputs":[],"outputs":[{"name":"","type":"address","internalType":"address"}],"stateMutability":"view"},{"type":"function","name":"reject","inputs":[],"outputs":[],"stateMutability":"nonpayable"},{"type":"function","name":"state","inputs":[],"outputs":[{"name":"","type":"uint8","internalType":"enum CarbonProject.State"}],"stateMutability":"view"},{"type":"function","name":"total_contributed","inputs":[],"outputs":[{"name":"","type":"uint256","internalType":"uint256"}],"stateMutability":"view"},{"type":"function","name":"verifier","inputs":[],"outputs":[{"name":"","type":"address","internalType":"address"}],"stateMutability":"view"},{"type":"function","name":"verify_and_release","inputs":[],"outputs":[],"stateMutability":"nonpayable"},{"type":"event","name":"Canceled","inputs":[{"name":"caller","type":"address","indexed":false,"internalType":"address"},{"name":"reason","type":"string","indexed":false,"internalType":"string"}],"anonymous":false},{"type":"event","name":"Funded","inputs":[{"name":"contributor","type":"address","indexed":false,"internalType":"address"},{"name":"amount","type":"uint256","indexed":false,"internalType":"uint256"},{"name":"new_total","type":"uint256","indexed":false,"internalType":"uint256"}],"anonymous":false},{"type":"event","name":"Refunded","inputs":[{"name":"contributor","type":"address","indexed":false,"internalType":"address"},{"name":"amount","type":"uint256","indexed":false,"internalType":"uint256"}],"anonymous":false},{"type":"event","name":"Rejected","inputs":[{"name":"verifier","type":"address","indexed":false,"internalType":"address"}],"anonymous":false},{"type":"event","name":"Verified","inputs":[{"name":"verifier","type":"address","indexed":false,"internalType":"address"},{"name":"released_amount","type":"uint256","indexed":false,"internalType":"uint256"},{"name":"beneficiary","type":"address","indexed":false,"internalType":"address"}],"anonymous":false}],"bytecode":{"object":"0x6080604052348015600e575f5ffd5b506124e48061001c5f395ff3fe6080604052600436106100fd575f3560e01c80638718d6a511610094578063b87f86b711610063578063b87f86b7146102d5578063bc36be0b146102ff578063bf7f9f5214610327578063c19d93fb14610351578063c31921c11461037b576100fd565b80638718d6a51461024d578063a8e4fb9014610277578063b60d4288146102a1578063b8214969146102ab576100fd565b80632b7ac3f3116100d05780632b7ac3f3146101cd5780632cc83123146101f757806338af3eed1461020d5780634dc415de14610237576100fd565b80630b4f3f3d1461010157806310bef815146101295780631f6d49421461016657806329dcb0cf146101a3575b5f5ffd5b34801561010c575f5ffd5b5061012760048036038101906101229190611548565b610391565b005b348015610134575f5ffd5b5061014f600480360381019061014a91906115ed565b6104fc565b60405161015d92919061164a565b60405180910390f35b348015610171575f5ffd5b5061018c600480360381019061018791906115ed565b61057f565b60405161019a92919061164a565b60405180910390f35b3480156101ae575f5ffd5b506101b76105ab565b6040516101c49190611671565b60405180910390f35b3480156101d8575f5ffd5b506101e16105b1565b6040516101ee9190611699565b60405180910390f35b348015610202575f5ffd5b5061020b6105d6565b005b348015610218575f5ffd5b5061022161092d565b60405161022e9190611699565b60405180910390f35b348015610242575f5ffd5b5061024b610952565b005b348015610258575f5ffd5b50610261610ab8565b60405161026e9190611769565b60405180910390f35b348015610282575f5ffd5b5061028b610b43565b6040516102989190611699565b60405180910390f35b6102a9610b67565b005b3480156102b6575f5ffd5b506102bf610d70565b6040516102cc9190611671565b60405180910390f35b3480156102e0575f5ffd5b506102e9610d76565b6040516102f69190611914565b60405180910390f35b34801561030a575f5ffd5b5061032560048036038101906103209190611a86565b610f06565b005b348015610332575f5ffd5b5061033b611141565b6040516103489190611b61565b60405180910390f35b34801561035c575f5ffd5b506103656111cd565b6040516103729190611b90565b60405180910390f35b348015610386575f5ffd5b5061038f6111df565b005b5f60038111156103a4576103a36117f9565b5b60055f9054906101000a900460ff1660038111156103c5576103c46117f9565b5b14610405576040517f08c379a00000000000000000000000000000000000000000000000000000000081526004016103fc90611bf3565b60405180910390fd5b5f5f9054906101000a900473ffffffffffffffffffffffffffffffffffffffff1673ffffffffffffffffffffffffffffffffffffffff163373ffffffffffffffffffffffffffffffffffffffff1614610493576040517f08c379a000000000000000000000000000000000000000000000000000000000815260040161048a90611c5b565b60405180910390fd5b600360055f6101000a81548160ff021916908360038111156104b8576104b76117f9565b5b02179055507f5710a4f30aa3360ca208a35f347ffb3d0ecab78fafa47dfebe6cfd50ba7f0dd33383836040516104f093929190611ca5565b60405180910390a15050565b5f5f5f60075f8573ffffffffffffffffffffffffffffffffffffffff1673ffffffffffffffffffffffffffffffffffffffff1681526020019081526020015f206040518060400160405290815f8201548152602001600182015f9054906101000a900460ff1615151515815250509050805f015181602001519250925050915091565b6007602052805f5260405f205f91509050805f015490806001015f9054906101000a900460ff16905082565b60045481565b60025f9054906101000a900473ffffffffffffffffffffffffffffffffffffffff1681565b600260038111156105ea576105e96117f9565b5b60055f9054906101000a900460ff16600381111561060b5761060a6117f9565b5b14806106485750600380811115610625576106246117f9565b5b60055f9054906101000a900460ff166003811115610646576106456117f9565b5b145b610687576040517f08c379a000000000000000000000000000000000000000000000000000000000815260040161067e90611d1f565b60405180910390fd5b5f60075f3373ffffffffffffffffffffffffffffffffffffffff1673ffffffffffffffffffffffffffffffffffffffff1681526020019081526020015f205f015411610708576040517f08c379a00000000000000000000000000000000000000000000000000000000081526004016106ff90611d87565b60405180910390fd5b60075f3373ffffffffffffffffffffffffffffffffffffffff1673ffffffffffffffffffffffffffffffffffffffff1681526020019081526020015f206001015f9054906101000a900460ff1615610795576040517f08c379a000000000000000000000000000000000000000000000000000000000815260040161078c90611def565b60405180910390fd5b5f60075f3373ffffffffffffffffffffffffffffffffffffffff1673ffffffffffffffffffffffffffffffffffffffff1681526020019081526020015f205f01549050600160075f3373ffffffffffffffffffffffffffffffffffffffff1673ffffffffffffffffffffffffffffffffffffffff1681526020019081526020015f206001015f6101000a81548160ff0219169083151502179055508060065f8282546108419190611e3a565b925050819055505f3373ffffffffffffffffffffffffffffffffffffffff168260405161086d90611e9a565b5f6040518083038185875af1925050503d805f81146108a7576040519150601f19603f3d011682016040523d82523d5f602084013e6108ac565b606091505b50509050806108f0576040517f08c379a00000000000000000000000000000000000000000000000000000000081526004016108e790611ef8565b60405180910390fd5b7fd7dee2702d63ad89917b6a4da9981c90c4d24f8c2bdfd64c604ecae57d8d06513383604051610921929190611f16565b60405180910390a15050565b60015f9054906101000a900473ffffffffffffffffffffffffffffffffffffffff1681565b5f6003811115610965576109646117f9565b5b60055f9054906101000a900460ff166003811115610986576109856117f9565b5b146109c6576040517f08c379a00000000000000000000000000000000000000000000000000000000081526004016109bd90611bf3565b60405180910390fd5b60025f9054906101000a900473ffffffffffffffffffffffffffffffffffffffff1673ffffffffffffffffffffffffffffffffffffffff163373ffffffffffffffffffffffffffffffffffffffff1614610a55576040517f08c379a0000000000000000000000000000000000000000000000000000000008152600401610a4c90611f87565b60405180910390fd5b600260055f6101000a81548160ff02191690836003811115610a7a57610a796117f9565b5b02179055507faf77f8960cf590e245ec8b6d41c193a5dcacad8986ae4eb57ac9e5be7b6af03133604051610aae9190611699565b60405180910390a1565b60606008805480602002602001604051908101604052809291908181526020018280548015610b3957602002820191905f5260205f20905b815f9054906101000a900473ffffffffffffffffffffffffffffffffffffffff1673ffffffffffffffffffffffffffffffffffffffff1681526020019060010190808311610af0575b5050505050905090565b5f5f9054906101000a900473ffffffffffffffffffffffffffffffffffffffff1681565b5f3411610ba9576040517f08c379a0000000000000000000000000000000000000000000000000000000008152600401610ba090611fef565b60405180910390fd5b5f6003811115610bbc57610bbb6117f9565b5b60055f9054906101000a900460ff166003811115610bdd57610bdc6117f9565b5b14610c1d576040517f08c379a0000000000000000000000000000000000000000000000000000000008152600401610c1490612057565b60405180910390fd5b5f60075f3373ffffffffffffffffffffffffffffffffffffffff1673ffffffffffffffffffffffffffffffffffffffff1681526020019081526020015f205f015403610cc457600833908060018154018082558091505060019003905f5260205f20015f9091909190916101000a81548173ffffffffffffffffffffffffffffffffffffffff021916908373ffffffffffffffffffffffffffffffffffffffff1602179055505b3460075f3373ffffffffffffffffffffffffffffffffffffffff1673ffffffffffffffffffffffffffffffffffffffff1681526020019081526020015f205f015f828254610d129190612075565b925050819055503460065f828254610d2a9190612075565b925050819055507fcd909ec339185c4598a4096e174308fbdf136d117f230960f873a2f2e81f63af3334600654604051610d66939291906120a8565b60405180910390a1565b60065481565b610d7e61144b565b6040518060e001604052805f5f9054906101000a900473ffffffffffffffffffffffffffffffffffffffff1673ffffffffffffffffffffffffffffffffffffffff16815260200160015f9054906101000a900473ffffffffffffffffffffffffffffffffffffffff1673ffffffffffffffffffffffffffffffffffffffff16815260200160025f9054906101000a900473ffffffffffffffffffffffffffffffffffffffff1673ffffffffffffffffffffffffffffffffffffffff16815260200160038054610e4c9061210a565b80601f0160208091040260200160405190810160405280929190818152602001828054610e789061210a565b8015610ec35780601f10610e9a57610100808354040283529160200191610ec3565b820191905f5260205f20905b815481529060010190602001808311610ea657829003601f168201915b5050505050815260200160055f9054906101000a900460ff166003811115610eee57610eed6117f9565b5b81526020016006548152602001600454815250905090565b5f73ffffffffffffffffffffffffffffffffffffffff165f5f9054906101000a900473ffffffffffffffffffffffffffffffffffffffff1673ffffffffffffffffffffffffffffffffffffffff1614610f94576040517f08c379a0000000000000000000000000000000000000000000000000000000008152600401610f8b90612184565b60405180910390fd5b5f73ffffffffffffffffffffffffffffffffffffffff168473ffffffffffffffffffffffffffffffffffffffff1614158015610ffc57505f73ffffffffffffffffffffffffffffffffffffffff168373ffffffffffffffffffffffffffffffffffffffff1614155b61103b576040517f08c379a0000000000000000000000000000000000000000000000000000000008152600401611032906121ec565b60405180910390fd5b845f5f6101000a81548173ffffffffffffffffffffffffffffffffffffffff021916908373ffffffffffffffffffffffffffffffffffffffff1602179055508360015f6101000a81548173ffffffffffffffffffffffffffffffffffffffff021916908373ffffffffffffffffffffffffffffffffffffffff1602179055508260025f6101000a81548173ffffffffffffffffffffffffffffffffffffffff021916908373ffffffffffffffffffffffffffffffffffffffff160217905550816003908161110991906123aa565b50806004819055505f60055f6101000a81548160ff02191690836003811115611135576111346117f9565b5b02179055505050505050565b6003805461114e9061210a565b80601f016020809104026020016040519081016040528092919081815260200182805461117a9061210a565b80156111c55780601f1061119c576101008083540402835291602001916111c5565b820191905f5260205f20905b8154815290600101906020018083116111a857829003601f168201915b505050505081565b60055f9054906101000a900460ff1681565b5f60038111156111f2576111f16117f9565b5b60055f9054906101000a900460ff166003811115611213576112126117f9565b5b14611253576040517f08c379a000000000000000000000000000000000000000000000000000000000815260040161124a90611bf3565b60405180910390fd5b60025f9054906101000a900473ffffffffffffffffffffffffffffffffffffffff1673ffffffffffffffffffffffffffffffffffffffff163373ffffffffffffffffffffffffffffffffffffffff16146112e2576040517f08c379a00000000000000000000000000000000000000000000000000000000081526004016112d990611f87565b60405180910390fd5b5f6006549050600160055f6101000a81548160ff0219169083600381111561130d5761130c6117f9565b5b02179055505f6006819055507f9ae2f4e396ae95fba0cb26d5cc7385f17ac549f5e325d2475d4632113e36fba1338260015f9054906101000a900473ffffffffffffffffffffffffffffffffffffffff1660405161136d93929190612479565b60405180910390a15f811115611448575f60015f9054906101000a900473ffffffffffffffffffffffffffffffffffffffff1673ffffffffffffffffffffffffffffffffffffffff16826040516113c390611e9a565b5f6040518083038185875af1925050503d805f81146113fd576040519150601f19603f3d011682016040523d82523d5f602084013e611402565b606091505b5050905080611446576040517f08c379a000000000000000000000000000000000000000000000000000000000815260040161143d90611ef8565b60405180910390fd5b505b50565b6040518060e001604052805f73ffffffffffffffffffffffffffffffffffffffff1681526020015f73ffffffffffffffffffffffffffffffffffffffff1681526020015f73ffffffffffffffffffffffffffffffffffffffff168152602001606081526020015f60038111156114c4576114c36117f9565b5b81526020015f81526020015f81525090565b5f604051905090565b5f5ffd5b5f5ffd5b5f5ffd5b5f5ffd5b5f5ffd5b5f5f83601f840112611508576115076114e7565b5b8235905067ffffffffffffffff811115611525576115246114eb565b5b602083019150836001820283011115611541576115406114ef565b5b9250929050565b5f5f6020838503121561155e5761155d6114df565b5b5f83013567ffffffffffffffff81111561157b5761157a6114e3565b5b611587858286016114f3565b92509250509250929050565b5f73ffffffffffffffffffffffffffffffffffffffff82169050919050565b5f6115bc82611593565b9050919050565b6115cc816115b2565b81146115d6575f5ffd5b50565b5f813590506115e7816115c3565b92915050565b5f60208284031215611602576116016114df565b5b5f61160f848285016115d9565b91505092915050565b5f819050919050565b61162a81611618565b82525050565b5f8115159050919050565b61164481611630565b82525050565b5f60408201905061165d5f830185611621565b61166a602083018461163b565b9392505050565b5f6020820190506116845f830184611621565b92915050565b611693816115b2565b82525050565b5f6020820190506116ac5f83018461168a565b92915050565b5f81519050919050565b5f82825260208201905092915050565b5f819050602082019050919050565b6116e4816115b2565b82525050565b5f6116f583836116db565b60208301905092915050565b5f602082019050919050565b5f611717826116b2565b61172181856116bc565b935061172c836116cc565b805f5b8381101561175c57815161174388826116ea565b975061174e83611701565b92505060018101905061172f565b5085935050505092915050565b5f6020820190508181035f830152611781818461170d565b905092915050565b5f81519050919050565b5f82825260208201905092915050565b8281835e5f83830152505050565b5f601f19601f8301169050919050565b5f6117cb82611789565b6117d58185611793565b93506117e58185602086016117a3565b6117ee816117b1565b840191505092915050565b7f4e487b71000000000000000000000000000000000000000000000000000000005f52602160045260245ffd5b60048110611837576118366117f9565b5b50565b5f81905061184782611826565b919050565b5f6118568261183a565b9050919050565b6118668161184c565b82525050565b61187581611618565b82525050565b5f60e083015f8301516118905f8601826116db565b5060208301516118a360208601826116db565b5060408301516118b660408601826116db565b50606083015184820360608601526118ce82826117c1565b91505060808301516118e3608086018261185d565b5060a08301516118f660a086018261186c565b5060c083015161190960c086018261186c565b508091505092915050565b5f6020820190508181035f83015261192c818461187b565b905092915050565b5f5ffd5b7f4e487b71000000000000000000000000000000000000000000000000000000005f52604160045260245ffd5b61196e826117b1565b810181811067ffffffffffffffff8211171561198d5761198c611938565b5b80604052505050565b5f61199f6114d6565b90506119ab8282611965565b919050565b5f67ffffffffffffffff8211156119ca576119c9611938565b5b6119d3826117b1565b9050602081019050919050565b828183375f83830152505050565b5f611a006119fb846119b0565b611996565b905082815260208101848484011115611a1c57611a1b611934565b5b611a278482856119e0565b509392505050565b5f82601f830112611a4357611a426114e7565b5b8135611a538482602086016119ee565b91505092915050565b611a6581611618565b8114611a6f575f5ffd5b50565b5f81359050611a8081611a5c565b92915050565b5f5f5f5f5f60a08688031215611a9f57611a9e6114df565b5b5f611aac888289016115d9565b9550506020611abd888289016115d9565b9450506040611ace888289016115d9565b935050606086013567ffffffffffffffff811115611aef57611aee6114e3565b5b611afb88828901611a2f565b9250506080611b0c88828901611a72565b9150509295509295909350565b5f82825260208201905092915050565b5f611b3382611789565b611b3d8185611b19565b9350611b4d8185602086016117a3565b611b56816117b1565b840191505092915050565b5f6020820190508181035f830152611b798184611b29565b905092915050565b611b8a8161184c565b82525050565b5f602082019050611ba35f830184611b81565b92915050565b7f416c726561647946696e616c697a6564000000000000000000000000000000005f82015250565b5f611bdd601083611b19565b9150611be882611ba9565b602082019050919050565b5f6020820190508181035f830152611c0a81611bd1565b9050919050565b7f4f6e6c7950726f706f73657200000000000000000000000000000000000000005f82015250565b5f611c45600c83611b19565b9150611c5082611c11565b602082019050919050565b5f6020820190508181035f830152611c7281611c39565b9050919050565b5f611c848385611b19565b9350611c918385846119e0565b611c9a836117b1565b840190509392505050565b5f604082019050611cb85f83018661168a565b8181036020830152611ccb818486611c79565b9050949350505050565b7f526566756e6473556e617661696c61626c6500000000000000000000000000005f82015250565b5f611d09601283611b19565b9150611d1482611cd5565b602082019050919050565b5f6020820190508181035f830152611d3681611cfd565b9050919050565b7f4e6f436f6e747269627574696f6e0000000000000000000000000000000000005f82015250565b5f611d71600e83611b19565b9150611d7c82611d3d565b602082019050919050565b5f6020820190508181035f830152611d9e81611d65565b9050919050565b7f416c7265616479526566756e64656400000000000000000000000000000000005f82015250565b5f611dd9600f83611b19565b9150611de482611da5565b602082019050919050565b5f6020820190508181035f830152611e0681611dcd565b9050919050565b7f4e487b71000000000000000000000000000000000000000000000000000000005f52601160045260245ffd5b5f611e4482611618565b9150611e4f83611618565b9250828203905081811115611e6757611e66611e0d565b5b92915050565b5f81905092915050565b50565b5f611e855f83611e6d565b9150611e9082611e77565b5f82019050919050565b5f611ea482611e7a565b9150819050919050565b7f5472616e73666572206661696c656400000000000000000000000000000000005f82015250565b5f611ee2600f83611b19565b9150611eed82611eae565b602082019050919050565b5f6020820190508181035f830152611f0f81611ed6565b9050919050565b5f604082019050611f295f83018561168a565b611f366020830184611621565b9392505050565b7f4f6e6c79566572696669657200000000000000000000000000000000000000005f82015250565b5f611f71600c83611b19565b9150611f7c82611f3d565b602082019050919050565b5f6020820190508181035f830152611f9e81611f65565b9050919050565b7f4e6f74506f73697469766556616c7565000000000000000000000000000000005f82015250565b5f611fd9601083611b19565b9150611fe482611fa5565b602082019050919050565b5f6020820190508181035f83015261200681611fcd565b9050919050565b7f4e6f74416363657074696e6746756e64730000000000000000000000000000005f82015250565b5f612041601183611b19565b915061204c8261200d565b602082019050919050565b5f6020820190508181035f83015261206e81612035565b9050919050565b5f61207f82611618565b915061208a83611618565b92508282019050808211156120a2576120a1611e0d565b5b92915050565b5f6060820190506120bb5f83018661168a565b6120c86020830185611621565b6120d56040830184611621565b949350505050565b7f4e487b71000000000000000000000000000000000000000000000000000000005f52602260045260245ffd5b5f600282049050600182168061212157607f821691505b602082108103612134576121336120dd565b5b50919050565b7f416c726561647920696e697469616c697a6564000000000000000000000000005f82015250565b5f61216e601383611b19565b91506121798261213a565b602082019050919050565b5f6020820190508181035f83015261219b81612162565b9050919050565b7f496e76616c6964416464726573730000000000000000000000000000000000005f82015250565b5f6121d6600e83611b19565b91506121e1826121a2565b602082019050919050565b5f6020820190508181035f830152612203816121ca565b9050919050565b5f819050815f5260205f209050919050565b5f6020601f8301049050919050565b5f82821b905092915050565b5f600883026122667fffffffffffffffffffffffffffffffffffffffffffffffffffffffffffffffff8261222b565b612270868361222b565b95508019841693508086168417925050509392505050565b5f819050919050565b5f6122ab6122a66122a184611618565b612288565b611618565b9050919050565b5f819050919050565b6122c483612291565b6122d86122d0826122b2565b848454612237565b825550505050565b5f5f905090565b6122ef6122e0565b6122fa8184846122bb565b505050565b5b8181101561231d576123125f826122e7565b600181019050612300565b5050565b601f821115612362576123338161220a565b61233c8461221c565b8101602085101561234b578190505b61235f6123578561221c565b8301826122ff565b50505b505050565b5f82821c905092915050565b5f6123825f1984600802612367565b1980831691505092915050565b5f61239a8383612373565b9150826002028217905092915050565b6123b382611789565b67ffffffffffffffff8111156123cc576123cb611938565b5b6123d6825461210a565b6123e1828285612321565b5f60209050601f831160018114612412575f8415612400578287015190505b61240a858261238f565b865550612471565b601f1984166124208661220a565b5f5b8281101561244757848901518255600182019150602085019450602081019050612422565b868310156124645784890151612460601f891682612373565b8355505b6001600288020188555050505b505050505050565b5f60608201905061248c5f83018661168a565b6124996020830185611621565b6124a6604083018461168a565b94935050505056fea264697066735822122022767cade858096855c96b646a5d29a932b44ac2ff978731daea59cf2b569ad964736f6c634300081e0033","linkReferences":{}},"methodIdentifiers":{"__init__(address,address,address,string,uint256)":"bc36be0b","beneficiary()":"38af3eed","cancel(string)":"0b4f3f3d","claim_refund()":"2cc83123","contributors(address)":"1f6d4942","deadline()":"29dcb0cf","fund()":"b60d4288","get_contribution(address)":"10bef815","get_contributors()":"8718d6a5","get_details()":"b87f86b7","metadata_uri()":"bf7f9f52","proposer()":"a8e4fb90","reject()":"4dc415de","state()":"c19d93fb","total_contributed()":"b8214969","verifier()":"2b7ac3f3","verify_and_release()":"c31921c1"},"id":0}