{"abi":[{"type":"constructor","inputs":[{"name":"project_implementation","type":"address","internalType":"address"}],"stateMutability":"nonpayable"},{"type":"function","name":"get_all_projects","inputs":[],"outputs":[{"name":"","type":"address[]","internalType":"address[]"}],"stateMutability":"view"},{"type":"function","name":"implementation","inputs":[],"outputs":[{"name":"","type":"address","internalType":"address"}],"stateMutability":"view"},{"type":"function","name":"projects","inputs":[{"name":"","type":"uint256","internalType":"uint256"}],"outputs":[{"name":"","type":"address","internalType":"address"}],"stateMutability":"view"},{"type":"function","name":"propose_project","inputs":[{"name":"beneficiary","type":"address","internalType":"address"},{"name":"verifier","type":"address","internalType":"address"},{"name":"metadata_uri","type":"string","internalType":"string"},{"name":"deadline","type":"uint256","internalType":"uint256"}],"outputs":[{"name":"","type":"address","internalType":"address"}],"stateMutability":"nonpayable"},{"type":"event","name":"ProjectCreated","inputs":[{"name":"project_address","type":"address","indexed":false,"internalType":"address"},{"name":"proposer","type":"address","indexed":false,"internalType":"address"},{"name":"beneficiary","type":"address","indexed":false,"internalType":"address"},{"name":"verifier","type":"address","indexed":false,"internalType":"address"},{"name":"metadata_uri","type":"string","indexed":false,"internalType":"string"},{"name":"deadline","type":"uint256","indexed":false,"internalType":"uint256"}],"anonymous":false}],"bytecode":{"object":"0x60a060405234801561000f575f5ffd5b50604051610bfa380380610bfa83398181016040528101906100319190610137565b5f73ffffffffffffffffffffffffffffffffffffffff168173ffffffffffffffffffffffffffffffffffffffff160361009f576040517f08c379a0000000000000000000000000000000000000000000000000000000008152600401610096906101bc565b60405180910390fd5b8073ffffffffffffffffffffffffffffffffffffffff1660808173ffffffffffffffffffffffffffffffffffffffff1681525050506101da565b5f5ffd5b5f73ffffffffffffffffffffffffffffffffffffffff82169050919050565b5f610106826100dd565b9050919050565b610116816100fc565b8114610120575f5ffd5b50565b5f815190506101318161010d565b92915050565b5f6020828403121561014c5761014b6100d9565b5b5f61015984828501610123565b91505092915050565b5f82825260208201905092915050565b7f496e76616c696420696d706c656d656e746174696f6e000000000000000000005f82015250565b5f6101a6601683610162565b91506101b182610172565b602082019050919050565b5f6020820190508181035f8301526101d38161019a565b9050919050565b608051610a016101f95f395f8181610126015261014f0152610a015ff3fe608060405234801561000f575f5ffd5b506004361061004a575f3560e01c8063107046bd1461004e5780635c60da1b1461007e5780636bf0a5151461009c578063e97410af146100cc575b5f5ffd5b610068600480360381019061006391906104ff565b6100ea565b6040516100759190610569565b60405180910390f35b610086610124565b6040516100939190610569565b60405180910390f35b6100b660048036038101906100b1919061060d565b610148565b6040516100c39190610569565b60405180910390f35b6100d4610364565b6040516100e19190610748565b60405180910390f35b5f81815481106100f8575f80fd5b905f5260205f20015f915054906101000a900473ffffffffffffffffffffffffffffffffffffffff1681565b7f000000000000000000000000000000000000000000000000000000000000000081565b5f5f6101737f00000000000000000000000000000000000000000000000000000000000000006103ee565b90505f8173ffffffffffffffffffffffffffffffffffffffff163389898989896040516024016101a8969594939291906107d1565b6040516020818303038152906040527fbc36be0b000000000000000000000000000000000000000000000000000000007bffffffffffffffffffffffffffffffffffffffffffffffffffffffff19166020820180517bffffffffffffffffffffffffffffffffffffffffffffffffffffffff8381831617835250505050604051610232919061087d565b5f604051808303815f865af19150503d805f811461026b576040519150601f19603f3d011682016040523d82523d5f602084013e610270565b606091505b50509050806102b4576040517f08c379a00000000000000000000000000000000000000000000000000000000081526004016102ab906108dd565b60405180910390fd5b5f82908060018154018082558091505060019003905f5260205f20015f9091909190916101000a81548173ffffffffffffffffffffffffffffffffffffffff021916908373ffffffffffffffffffffffffffffffffffffffff1602179055507ffab7d81ef2990b2dcb9d559609061e89decc86f67ecd0eb0e219693ad2c5f5bb82338a8a8a8a8a60405161034e97969594939291906108fb565b60405180910390a1819250505095945050505050565b60605f8054806020026020016040519081016040528092919081815260200182805480156103e457602002820191905f5260205f20905b815f9054906101000a900473ffffffffffffffffffffffffffffffffffffffff1673ffffffffffffffffffffffffffffffffffffffff168152602001906001019080831161039b575b5050505050905090565b5f5f8260601b90506040517f3d602d80600a3d3981f3363d3d373d3d3d363d7300000000000000000000000081528160148201527f5af43d82803e903d91602b57fd5bf3000000000000000000000000000000000060288201526037815ff09250505f73ffffffffffffffffffffffffffffffffffffffff168273ffffffffffffffffffffffffffffffffffffffff16036104be576040517f08c379a00000000000000000000000000000000000000000000000000000000081526004016104b5906109ad565b60405180910390fd5b50919050565b5f5ffd5b5f5ffd5b5f819050919050565b6104de816104cc565b81146104e8575f5ffd5b50565b5f813590506104f9816104d5565b92915050565b5f60208284031215610514576105136104c4565b5b5f610521848285016104eb565b91505092915050565b5f73ffffffffffffffffffffffffffffffffffffffff82169050919050565b5f6105538261052a565b9050919050565b61056381610549565b82525050565b5f60208201905061057c5f83018461055a565b92915050565b61058b81610549565b8114610595575f5ffd5b50565b5f813590506105a681610582565b92915050565b5f5ffd5b5f5ffd5b5f5ffd5b5f5f83601f8401126105cd576105cc6105ac565b5b8235905067ffffffffffffffff8111156105ea576105e96105b0565b5b602083019150836001820283011115610606576106056105b4565b5b9250929050565b5f5f5f5f5f60808688031215610626576106256104c4565b5b5f61063388828901610598565b955050602061064488828901610598565b945050604086013567ffffffffffffffff811115610665576106646104c8565b5b610671888289016105b8565b93509350506060610684888289016104eb565b9150509295509295909350565b5f81519050919050565b5f82825260208201905092915050565b5f819050602082019050919050565b6106c381610549565b82525050565b5f6106d483836106ba565b60208301905092915050565b5f602082019050919050565b5f6106f682610691565b610700818561069b565b935061070b836106ab565b805f5b8381101561073b57815161072288826106c9565b975061072d836106e0565b92505060018101905061070e565b5085935050505092915050565b5f6020820190508181035f83015261076081846106ec565b905092915050565b5f82825260208201905092915050565b828183375f83830152505050565b5f601f19601f8301169050919050565b5f6107a18385610768565b93506107ae838584610778565b6107b783610786565b840190509392505050565b6107cb816104cc565b82525050565b5f60a0820190506107e45f83018961055a565b6107f1602083018861055a565b6107fe604083018761055a565b8181036060830152610811818587610796565b905061082060808301846107c2565b979650505050505050565b5f81519050919050565b5f81905092915050565b8281835e5f83830152505050565b5f6108578261082b565b6108618185610835565b935061087181856020860161083f565b80840191505092915050565b5f610888828461084d565b915081905092915050565b7f50726f6a65637420696e697469616c697a6174696f6e206661696c65640000005f82015250565b5f6108c7601d83610768565b91506108d282610893565b602082019050919050565b5f6020820190508181035f8301526108f4816108bb565b9050919050565b5f60c08201905061090e5f83018a61055a565b61091b602083018961055a565b610928604083018861055a565b610935606083018761055a565b8181036080830152610948818587610796565b905061095760a08301846107c2565b98975050505050505050565b7f437265617465206661696c6564000000000000000000000000000000000000005f82015250565b5f610997600d83610768565b91506109a282610963565b602082019050919050565b5f6020820190508181035f8301526109c48161098b565b905091905056fea264697066735822122039ca7c3c625cdc7b192422b7d0ad41670bc1d9522aed3e558f8789f9dc5802a364736f6c634300081e0033","linkReferences":{}},"methodIdentifiers":{"get_all_projects()":"e97410af","implementation()":"5c60da1b","projects(uint256)":"107046bd","propose_project(address,address,string,uint256)":"6bf0a515"},"id":0}